{
  "address": "0xe8D2A1E88c91DCd5433208d4152Cc4F399a7e91d",
  "abi": [
    {
      "inputs": [],
      "stateMutability": "nonpayable",
      "type": "constructor"
    },
    {
      "anonymous": false,
      "inputs": [
        {
          "indexed": true,
          "internalType": "uint256",
          "name": "contractId",
          "type": "uint256"
        },
        {
          "indexed": true,
          "internalType": "address",
          "name": "contractAddress",
          "type": "address"
        },
        {
          "indexed": false,
          "internalType": "address",
          "name": "creator",
          "type": "address"
        },
        {
          "indexed": false,
          "internalType": "address[]",
          "name": "owners",
          "type": "address[]"
        },
        {
          "indexed": false,
          "internalType": "uint256",
          "name": "signaturesRequired",
          "type": "uint256"
        }
      ],
      "name": "Create",
      "type": "event"
    },
    {
      "anonymous": false,
      "inputs": [
        {
          "indexed": false,
          "internalType": "address",
          "name": "owner",
          "type": "address"
        },
        {
          "indexed": false,
          "internalType": "string",
          "name": "properTy",
          "type": "string"
        },
        {
          "indexed": false,
          "internalType": "uint256",
          "name": "value",
          "type": "uint256"
        },
        {
          "indexed": false,
          "internalType": "bool",
          "name": "boolCheck",
          "type": "bool"
        },
        {
          "indexed": false,
          "internalType": "address",
          "name": "addressCheck",
          "type": "address"
        },
        {
          "indexed": false,
          "internalType": "bytes32",
          "name": "_hash",
          "type": "bytes32"
        }
      ],
      "name": "DebugLog",
      "type": "event"
    },
    {
      "anonymous": false,
      "inputs": [
        {
          "indexed": true,
          "internalType": "address",
          "name": "contractAddress",
          "type": "address"
        },
        {
          "indexed": false,
          "internalType": "address[]",
          "name": "owners",
          "type": "address[]"
        },
        {
          "indexed": true,
          "internalType": "uint256",
          "name": "signaturesRequired",
          "type": "uint256"
        }
      ],
      "name": "Owners",
      "type": "event"
    },
    {
      "inputs": [
        {
          "internalType": "uint256",
          "name": "_chainId",
          "type": "uint256"
        },
        {
          "internalType": "address[]",
          "name": "_owners",
          "type": "address[]"
        },
        {
          "internalType": "uint256",
          "name": "_signaturesRequired",
          "type": "uint256"
        }
      ],
      "name": "create",
      "outputs": [],
      "stateMutability": "payable",
      "type": "function"
    },
    {
      "inputs": [
        {
          "internalType": "address",
          "name": "owner",
          "type": "address"
        },
        {
          "internalType": "string",
          "name": "properTy",
          "type": "string"
        },
        {
          "internalType": "uint256",
          "name": "value",
          "type": "uint256"
        },
        {
          "internalType": "bool",
          "name": "boolCheck",
          "type": "bool"
        },
        {
          "internalType": "address",
          "name": "addressCheck",
          "type": "address"
        },
        {
          "internalType": "bytes32",
          "name": "_hash",
          "type": "bytes32"
        }
      ],
      "name": "emitDebugLog",
      "outputs": [],
      "stateMutability": "nonpayable",
      "type": "function"
    },
    {
      "inputs": [
        {
          "internalType": "address",
          "name": "_contractAddress",
          "type": "address"
        },
        {
          "internalType": "address[]",
          "name": "_owners",
          "type": "address[]"
        },
        {
          "internalType": "uint256",
          "name": "_signaturesRequired",
          "type": "uint256"
        }
      ],
      "name": "emitOwners",
      "outputs": [],
      "stateMutability": "nonpayable",
      "type": "function"
    },
    {
      "inputs": [
        {
          "internalType": "uint256",
          "name": "_index",
          "type": "uint256"
        }
      ],
      "name": "getMultiSig",
      "outputs": [
        {
          "internalType": "address",
          "name": "multiSigAddress",
          "type": "address"
        },
        {
          "internalType": "uint256",
          "name": "signaturesRequired",
          "type": "uint256"
        },
        {
          "internalType": "uint256",
          "name": "balance",
          "type": "uint256"
        }
      ],
      "stateMutability": "view",
      "type": "function"
    },
    {
      "inputs": [
        {
          "internalType": "uint256",
          "name": "",
          "type": "uint256"
        }
      ],
      "name": "multiSigs",
      "outputs": [
        {
          "internalType": "contract MetaMultiSigWallet",
          "name": "",
          "type": "address"
        }
      ],
      "stateMutability": "view",
      "type": "function"
    },
    {
      "inputs": [],
      "name": "numberOfMultiSigs",
      "outputs": [
        {
          "internalType": "uint256",
          "name": "",
          "type": "uint256"
        }
      ],
      "stateMutability": "view",
      "type": "function"
    }
  ],
  "transactionHash": "0x6927a3a89969ce22f94814d91a7b29e374baa9e6bb8a1c1fa19408a907d3c117",
  "args": [],
  "numDeployments": 1,
  "solcInputHash": "64e0703e7c917aa8e4bc3ddd6b82ca63",
  "bytecode": "0x608060405234801561001057600080fd5b50612716806100206000396000f3fe6080604052600436106200005c5760003560e01c80632f1d8a23146200006157806382a9ae6c14620000855780639567e7ed14620000ac578063bedf429414620000f7578063c67fdb94146200011c578063f931486b146200015a575b600080fd5b3480156200006e57600080fd5b506000546040519081526020015b60405180910390f35b3480156200009257600080fd5b50620000aa620000a4366004620005d7565b62000171565b005b348015620000b957600080fd5b50620000d1620000cb366004620006bf565b620001bc565b604080516001600160a01b0390941684526020840192909252908201526060016200007c565b3480156200010457600080fd5b50620000aa620001163660046200057a565b62000286565b3480156200012957600080fd5b50620001416200013b366004620006bf565b6200033f565b6040516001600160a01b0390911681526020016200007c565b620000aa6200016b366004620006f3565b6200036a565b7fce67d0e9417a840b8ab0d0b6d0f3e28daf852b3d262fa73967c858c199dc30f3868686868686604051620001ac96959493929190620007a4565b60405180910390a1505050505050565b60008060008060008581548110620001d857620001d8620008c5565b9060005260206000200160009054906101000a90046001600160a01b0316905080816001600160a01b031663ce757d296040518163ffffffff1660e01b815260040160206040518083038186803b1580156200023357600080fd5b505afa15801562000248573d6000803e3d6000fd5b505050506040513d601f19601f820116820180604052508101906200026e9190620006d9565b90945092506001600160a01b03163190509193909250565b3360009081526001602052604090205460ff16620002f65760405162461bcd60e51b815260206004820152602360248201527f63616c6c6572206e6f74207265676973746572656420746f20757365206c6f6760448201526233b2b960e91b606482015260840160405180910390fd5b80836001600160a01b03167f767d0acba39e4cf96349b168ed9d32211fb4940be0f3549d31154941785c9b6a8460405162000332919062000839565b60405180910390a3505050565b600081815481106200035057600080fd5b6000918252602090912001546001600160a01b0316905081565b600080549050600034858585306040516200038590620004a6565b62000394949392919062000855565b6040518091039082f0905080158015620003b2573d6000803e3d6000fd5b5060008054600180820183557f290decd9548b62a8d60345a988386fc84ba6bc95484008f6362f93160ef3e56390910180546001600160a01b0319166001600160a01b0385169081179091558083526020829052604092839020805460ff191690921790915590519192509083907f8e7afa2cfd444b14c15f2c5a27041b913dfe206302b391e01c241cb58ade03379062000453903390899089906200076e565b60405180910390a382816001600160a01b03167f767d0acba39e4cf96349b168ed9d32211fb4940be0f3549d31154941785c9b6a8660405162000497919062000839565b60405180910390a35050505050565b611def80620008f283390190565b80356001600160a01b0381168114620004cc57600080fd5b919050565b600082601f830112620004e357600080fd5b8135602067ffffffffffffffff821115620005025762000502620008db565b8160051b6200051382820162000891565b8381528281019086840183880185018910156200052f57600080fd5b600093505b858410156200055d576200054881620004b4565b83526001939093019291840191840162000534565b50979650505050505050565b80358015158114620004cc57600080fd5b6000806000606084860312156200059057600080fd5b6200059b84620004b4565b9250602084013567ffffffffffffffff811115620005b857600080fd5b620005c686828701620004d1565b925050604084013590509250925092565b60008060008060008060c08789031215620005f157600080fd5b620005fc87620004b4565b955060208088013567ffffffffffffffff808211156200061b57600080fd5b818a0191508a601f8301126200063057600080fd5b813581811115620006455762000645620008db565b62000659601f8201601f1916850162000891565b91508082528b848285010111156200067057600080fd5b8084840185840137600084828401015250809750505050604087013593506200069c6060880162000569565b9250620006ac60808801620004b4565b915060a087013590509295509295509295565b600060208284031215620006d257600080fd5b5035919050565b600060208284031215620006ec57600080fd5b5051919050565b6000806000606084860312156200070957600080fd5b83359250602084013567ffffffffffffffff811115620005b857600080fd5b600081518084526020808501945080840160005b83811015620007635781516001600160a01b0316875295820195908201906001016200073c565b509495945050505050565b6001600160a01b0384168152606060208201819052600090620007949083018562000728565b9050826040830152949350505050565b60018060a01b03871681526000602060c08184015287518060c085015260005b81811015620007e25789810183015185820160e001528201620007c4565b81811115620007f557600060e083870101525b5060408401889052601f01601f1916830160e00191506200081c9050606083018615159052565b6001600160a01b0393909316608082015260a00152949350505050565b6020815260006200084e602083018462000728565b9392505050565b84815260806020820152600062000870608083018662000728565b6040830194909452506001600160a01b039190911660609091015292915050565b604051601f8201601f1916810167ffffffffffffffff81118282101715620008bd57620008bd620008db565b604052919050565b634e487b7160e01b600052603260045260246000fd5b634e487b7160e01b600052604160045260246000fdfe608060405260405162001def38038062001def833981016040819052620000269162000249565b60008211620000905760405162461bcd60e51b815260206004820152602b60248201527f636f6e7374727563746f723a206d757374206265206e6f6e2d7a65726f20736960448201526a19dcc81c995c5d5a5c995960aa1b60648201526084015b60405180910390fd5b600580546001600160a01b0319166001600160a01b038316179055600182905560005b83518110156200021c576000848281518110620000d457620000d462000376565b6020026020010151905060006001600160a01b0316816001600160a01b03161415620001435760405162461bcd60e51b815260206004820152601960248201527f636f6e7374727563746f723a207a65726f206164647265737300000000000000604482015260640162000087565b6001600160a01b03811660009081526020819052604090205460ff1615620001ae5760405162461bcd60e51b815260206004820152601d60248201527f636f6e7374727563746f723a206f776e6572206e6f7420756e69717565000000604482015260640162000087565b6001600160a01b03811660008181526020818152604091829020805460ff1916600190811790915591519182527ffe545f48304051c4029eb2da9927daa59da0414b4b084fdceaf2955b609b899e910160405180910390a2508062000213816200034c565b915050620000b3565b50505060039190915550620003a2565b80516001600160a01b03811681146200024457600080fd5b919050565b600080600080608085870312156200026057600080fd5b8451602080870151919550906001600160401b03808211156200028257600080fd5b818801915088601f8301126200029757600080fd5b815181811115620002ac57620002ac6200038c565b8060051b604051601f19603f83011681018181108582111715620002d457620002d46200038c565b604052828152858101935084860182860187018d1015620002f457600080fd5b600095505b8386101562000322576200030d816200022c565b855260019590950194938601938601620002f9565b508098505050505050506040850151915062000341606086016200022c565b905092959194509250565b60006000198214156200036f57634e487b7160e01b600052601160045260246000fd5b5060010190565b634e487b7160e01b600052603260045260246000fd5b634e487b7160e01b600052604160045260246000fd5b611a3d80620003b26000396000f3fe6080604052600436106100f75760003560e01c8063836992751161008a578063ce757d2911610059578063ce757d291461032d578063d1fbffa014610343578063de4b9e9314610370578063e0a2ff541461039057600080fd5b8063836992751461028a5780639a8a0592146102e1578063a8397ddc146102f7578063affed0e01461031757600080fd5b80633034a742116100c65780633034a742146101fc5780633bad54261461021c578063545a4a3c1461023c57806365af1bed1461026a57600080fd5b8063025e7c271461013d57806319045a251461017a5780632a387d5d1461019a5780632f54bf6e146101bc57600080fd5b36610138576040805134815247602082015233917f90890809c654f11d6e72a28fa60149770a0d11ec6c92319d6ceb2bb0a4ea1a15910160405180910390a2005b600080fd5b34801561014957600080fd5b5061015d61015836600461162e565b6103b0565b6040516001600160a01b0390911681526020015b60405180910390f35b34801561018657600080fd5b5061015d6101953660046115e7565b6103da565b3480156101a657600080fd5b506101ba6101b53660046115b2565b610444565b005b3480156101c857600080fd5b506101ec6101d7366004611460565b60006020819052908152604090205460ff1681565b6040519015158152602001610171565b34801561020857600080fd5b506101ba61021736600461162e565b6105d2565b34801561022857600080fd5b506101ba610237366004611586565b61066c565b34801561024857600080fd5b5061025c610257366004611647565b610822565b604051908152602001610171565b34801561027657600080fd5b506101ba610285366004611586565b610861565b34801561029657600080fd5b506102c66102a5366004611460565b60076020526000908152604090208054600182015460029092015490919083565b60408051938452602084019290925290820152606001610171565b3480156102ed57600080fd5b5061025c60035481565b34801561030357600080fd5b506101ba6103123660046116aa565b6109ff565b34801561032357600080fd5b5061025c60025481565b34801561033957600080fd5b5061025c60015481565b34801561034f57600080fd5b5061036361035e36600461147d565b610a6a565b6040516101719190611858565b34801561037c57600080fd5b506101ba61038b366004611460565b610d89565b34801561039c57600080fd5b5061025c6103ab366004611460565b610ec1565b600681815481106103c057600080fd5b6000918252602090912001546001600160a01b0316905081565b600061043d82610437856040517f19457468657265756d205369676e6564204d6573736167653a0a3332000000006020820152603c8101829052600090605c01604051602081830303815290604052805190602001209050919050565b90610f21565b9392505050565b33301461046c5760405162461bcd60e51b81526004016104639061186b565b60405180910390fd5b6001600160a01b038316600090815260076020526040902054156104d25760405162461bcd60e51b815260206004820152601f60248201527f6f70656e53747265616d3a2073747265616d20616c7265616479206f70656e006044820152606401610463565b6000821161051a5760405162461bcd60e51b81526020600482015260156024820152741bdc195b94dd1c99585b4e881b9bc8185b5bdd5b9d605a1b6044820152606401610463565b6000811161056a5760405162461bcd60e51b815260206004820152601860248201527f6f70656e53747265616d3a206e6f206672657175656e637900000000000000006044820152606401610463565b6001600160a01b038316600081815260076020908152604091829020858155600181018590554260029091015581518581529081018490527f81236f9eb471668cf00861415085dace409d719678881c59b03e49683bbef716910160405180910390a2505050565b3330146105f15760405162461bcd60e51b81526004016104639061186b565b600081116106675760405162461bcd60e51b815260206004820152603860248201527f7570646174655369676e61747572657352657175697265643a206d757374206260448201527f65206e6f6e2d7a65726f207369677320726571756972656400000000000000006064820152608401610463565b600155565b33301461068b5760405162461bcd60e51b81526004016104639061186b565b6001600160a01b03821660009081526020819052604090205460ff166106f35760405162461bcd60e51b815260206004820152601760248201527f72656d6f76655369676e65723a206e6f74206f776e65720000000000000000006044820152606401610463565b600081116107585760405162461bcd60e51b815260206004820152602c60248201527f72656d6f76655369676e65723a206d757374206265206e6f6e2d7a65726f207360448201526b1a59dcc81c995c5d5a5c995960a21b6064820152608401610463565b6001600160a01b03821660008181526020818152604091829020805460ff19168155600185905554915160ff909216151582527ffe545f48304051c4029eb2da9927daa59da0414b4b084fdceaf2955b609b899e91015b60405180910390a2600554604051632fb7d0a560e21b81526001600160a01b039091169063bedf4294906107ec90309060069086906004016117f0565b600060405180830381600087803b15801561080657600080fd5b505af115801561081a573d6000803e3d6000fd5b505050505050565b6000306003548686868660405160200161084196959493929190611727565b604051602081830303815290604052805190602001209050949350505050565b3330146108805760405162461bcd60e51b81526004016104639061186b565b6001600160a01b0382166108d65760405162461bcd60e51b815260206004820152601760248201527f6164645369676e65723a207a65726f20616464726573730000000000000000006044820152606401610463565b6001600160a01b03821660009081526020819052604090205460ff161561093f5760405162461bcd60e51b815260206004820152601b60248201527f6164645369676e65723a206f776e6572206e6f7420756e6971756500000000006044820152606401610463565b600081116109a15760405162461bcd60e51b815260206004820152602960248201527f6164645369676e65723a206d757374206265206e6f6e2d7a65726f2073696773604482015268081c995c5d5a5c995960ba1b6064820152608401610463565b6001600160a01b03821660008181526020818152604091829020805460ff19166001908117825585905554915160ff909216151582527ffe545f48304051c4029eb2da9927daa59da0414b4b084fdceaf2955b609b899e91016107af565b33600090815260076020526040902054610a5b5760405162461bcd60e51b815260206004820152601860248201527f77697468647261773a206e6f206f70656e2073747265616d00000000000000006044820152606401610463565b610a66338383610f45565b5050565b3360009081526020819052604090205460609060ff16610ae05760405162461bcd60e51b815260206004820152602b60248201527f657865637574655472616e73616374696f6e3a206f6e6c79206f776e6572732060448201526a63616e206578656375746560a81b6064820152608401610463565b6000610af0600254878787610822565b600280549192506000610b028361197f565b90915550600090508080805b8651811015610c07576000610b3c86898481518110610b2f57610b2f6119c6565b60200260200101516103da565b9050809250836001600160a01b0316816001600160a01b031611610bc05760405162461bcd60e51b815260206004820152603560248201527f657865637574655472616e73616374696f6e3a206475706c6963617465206f7260448201527420756e6f726465726564207369676e61747572657360581b6064820152608401610463565b6001600160a01b038116600090815260208190526040902054909350839060ff1615610bf45784610bf08161197f565b9550505b5080610bff8161197f565b915050610b0e565b50600154831015610c725760405162461bcd60e51b815260206004820152602f60248201527f657865637574655472616e73616374696f6e3a206e6f7420656e6f756768207660448201526e616c6964207369676e61747572657360881b6064820152608401610463565b6000808a6001600160a01b03168a8a604051610c8e9190611782565b60006040518083038185875af1925050503d8060008114610ccb576040519150601f19603f3d011682016040523d82523d6000602084013e610cd0565b606091505b509150915081610d225760405162461bcd60e51b815260206004820152601d60248201527f657865637574655472616e73616374696f6e3a207478206661696c65640000006044820152606401610463565b336001600160a01b03167f9053e9ec105157fac8c9308d63e6b22be5f50fe915a3e567419b624311a02d748c8c8c6001600254610d5f9190611938565b8b87604051610d739695949392919061179e565b60405180910390a29a9950505050505050505050565b333014610da85760405162461bcd60e51b81526004016104639061186b565b6001600160a01b038116600090815260076020526040902054610e185760405162461bcd60e51b815260206004820152602260248201527f636c6f736553747265616d3a2073747265616d20616c726561647920636c6f73604482015261195960f21b6064820152608401610463565b610e708160076000846001600160a01b03166001600160a01b03168152602001908152602001600020600001546040518060400160405280600d81526020016c1cdd1c99585b4818db1bdcd959609a1b815250610f45565b6001600160a01b03811660008181526007602052604080822082815560018101839055600201829055517fcc362a45d32c94d02a329570bd5935709d77f6dc79ac6afa5107b513642461c29190a250565b6001600160a01b03811660009081526007602052604081206001810154600290910154610eee9042611938565b6001600160a01b038416600090815260076020526040902054610f119190611919565b610f1b91906118f7565b92915050565b6000806000610f308585611094565b91509150610f3d81611104565b509392505050565b6000610f5084610ec1565b905082811015610f995760405162461bcd60e51b81526020600482015260146024820152730eed2e8d0c8e4c2ee7440dcdee840cadcdeeaced60631b6044820152606401610463565b6001600160a01b03841660009081526007602052604090206002015481908490610fc39042611938565b610fcd9190611919565b610fd791906118f7565b6001600160a01b038516600090815260076020526040902060020154610ffd91906118df565b6001600160a01b038516600081815260076020526040908190206002019290925590517f485f1bb6524c663555797e00171a10f341656e59b02d6b557a0a38ba7d5d97519061104f908690869061188d565b60405180910390a26040516001600160a01b0385169084156108fc029085906000818181858888f1935050505015801561108d573d6000803e3d6000fd5b5050505050565b6000808251604114156110cb5760208301516040840151606085015160001a6110bf878285856112c2565b945094505050506110fd565b8251604014156110f557602083015160408401516110ea8683836113af565b9350935050506110fd565b506000905060025b9250929050565b6000816004811115611118576111186119b0565b14156111215750565b6001816004811115611135576111356119b0565b14156111835760405162461bcd60e51b815260206004820152601860248201527f45434453413a20696e76616c6964207369676e617475726500000000000000006044820152606401610463565b6002816004811115611197576111976119b0565b14156111e55760405162461bcd60e51b815260206004820152601f60248201527f45434453413a20696e76616c6964207369676e6174757265206c656e677468006044820152606401610463565b60038160048111156111f9576111f96119b0565b14156112525760405162461bcd60e51b815260206004820152602260248201527f45434453413a20696e76616c6964207369676e6174757265202773272076616c604482015261756560f01b6064820152608401610463565b6004816004811115611266576112666119b0565b14156112bf5760405162461bcd60e51b815260206004820152602260248201527f45434453413a20696e76616c6964207369676e6174757265202776272076616c604482015261756560f01b6064820152608401610463565b50565b6000807f7fffffffffffffffffffffffffffffff5d576e7357a4501ddfe92f46681b20a08311156112f957506000905060036113a6565b8460ff16601b1415801561131157508460ff16601c14155b1561132257506000905060046113a6565b6040805160008082526020820180845289905260ff881692820192909252606081018690526080810185905260019060a0016020604051602081039080840390855afa158015611376573d6000803e3d6000fd5b5050604051601f1901519150506001600160a01b03811661139f576000600192509250506113a6565b9150600090505b94509492505050565b6000806001600160ff1b038316816113cc60ff86901c601b6118df565b90506113da878288856112c2565b935093505050935093915050565b600067ffffffffffffffff831115611402576114026119dc565b611415601f8401601f19166020016118ae565b905082815283838301111561142957600080fd5b828260208301376000602084830101529392505050565b600082601f83011261145157600080fd5b61043d838335602085016113e8565b60006020828403121561147257600080fd5b813561043d816119f2565b6000806000806080858703121561149357600080fd5b843561149e816119f2565b93506020858101359350604086013567ffffffffffffffff808211156114c357600080fd5b6114cf89838a01611440565b945060608801359150808211156114e557600080fd5b818801915088601f8301126114f957600080fd5b81358181111561150b5761150b6119dc565b8060051b61151a8582016118ae565b8281528581019085870183870188018e101561153557600080fd5b600093505b848410156115745780358681111561155157600080fd5b61155f8f8a838b0101611440565b8452506001939093019291870191870161153a565b50999c989b5096995050505050505050565b6000806040838503121561159957600080fd5b82356115a4816119f2565b946020939093013593505050565b6000806000606084860312156115c757600080fd5b83356115d2816119f2565b95602085013595506040909401359392505050565b600080604083850312156115fa57600080fd5b82359150602083013567ffffffffffffffff81111561161857600080fd5b61162485828601611440565b9150509250929050565b60006020828403121561164057600080fd5b5035919050565b6000806000806080858703121561165d57600080fd5b84359350602085013561166f816119f2565b925060408501359150606085013567ffffffffffffffff81111561169257600080fd5b61169e87828801611440565b91505092959194509250565b600080604083850312156116bd57600080fd5b82359150602083013567ffffffffffffffff8111156116db57600080fd5b8301601f810185136116ec57600080fd5b611624858235602084016113e8565b6000815180845261171381602086016020860161194f565b601f01601f19169290920160200192915050565b60006bffffffffffffffffffffffff19808960601b168352876014840152866034840152808660601b16605484015250836068830152825161177081608885016020870161194f565b91909101608801979650505050505050565b6000825161179481846020870161194f565b9190910192915050565b60018060a01b038716815285602082015260c0604082015260006117c560c08301876116fb565b85606084015284608084015282810360a08401526117e381856116fb565b9998505050505050505050565b60006060820160018060a01b03808716845260206060818601528287548085526080870191508860005282600020945060005b81811015611841578554851683526001958601959284019201611823565b505080945050505050826040830152949350505050565b60208152600061043d60208301846116fb565b6020808252600890820152672737ba1029b2b63360c11b604082015260600190565b8281526040602082015260006118a660408301846116fb565b949350505050565b604051601f8201601f1916810167ffffffffffffffff811182821017156118d7576118d76119dc565b604052919050565b600082198211156118f2576118f261199a565b500190565b60008261191457634e487b7160e01b600052601260045260246000fd5b500490565b60008160001904831182151516156119335761193361199a565b500290565b60008282101561194a5761194a61199a565b500390565b60005b8381101561196a578181015183820152602001611952565b83811115611979576000848401525b50505050565b60006000198214156119935761199361199a565b5060010190565b634e487b7160e01b600052601160045260246000fd5b634e487b7160e01b600052602160045260246000fd5b634e487b7160e01b600052603260045260246000fd5b634e487b7160e01b600052604160045260246000fd5b6001600160a01b03811681146112bf57600080fdfea2646970667358221220adfe931be31a69490461e00b0f80cb09e70a45205b5ae67f19cbd17a1027999c64736f6c63430008060033a26469706673582212201fa67663650ce0f19980e9b127e64e73a86e82799544ed55c3090affd95fded264736f6c63430008060033",
  "devdoc": {
    "kind": "dev",
    "methods": {},
    "version": 1
  },
  "userdoc": {
    "kind": "user",
    "methods": {},
    "version": 1
  },
  "storageLayout": {
    "storage": [
      {
        "astId": 2144,
        "contract": "contracts/MultiSigFactory.sol:MultiSigFactory",
        "label": "multiSigs",
        "offset": 0,
        "slot": "0",
        "type": "t_array(t_contract(MetaMultiSigWallet)2113)dyn_storage"
      },
      {
        "astId": 2148,
        "contract": "contracts/MultiSigFactory.sol:MultiSigFactory",
        "label": "existsMultiSig",
        "offset": 0,
        "slot": "1",
        "type": "t_mapping(t_address,t_bool)"
      }
    ],
    "types": {
      "t_address": {
        "encoding": "inplace",
        "label": "address",
        "numberOfBytes": "20"
      },
      "t_array(t_contract(MetaMultiSigWallet)2113)dyn_storage": {
        "base": "t_contract(MetaMultiSigWallet)2113",
        "encoding": "dynamic_array",
        "label": "contract MetaMultiSigWallet[]",
        "numberOfBytes": "32"
      },
      "t_bool": {
        "encoding": "inplace",
        "label": "bool",
        "numberOfBytes": "1"
      },
      "t_contract(MetaMultiSigWallet)2113": {
        "encoding": "inplace",
        "label": "contract MetaMultiSigWallet",
        "numberOfBytes": "20"
      },
      "t_mapping(t_address,t_bool)": {
        "encoding": "mapping",
        "key": "t_address",
        "label": "mapping(address => bool)",
        "numberOfBytes": "32",
        "value": "t_bool"
      }
    }
  }
}